{
  "_format": "hh-sol-artifact-1",
  "contractName": "Rekart",
  "sourceName": "contracts/Rekart.sol",
  "abi": [
    {
      "inputs": [],
      "stateMutability": "nonpayable",
      "type": "constructor"
    },
    {
      "anonymous": false,
      "inputs": [
        {
          "indexed": false,
          "internalType": "address",
          "name": "buyer",
          "type": "address"
        },
        {
          "indexed": false,
          "internalType": "uint256",
          "name": "orderId",
          "type": "uint256"
        },
        {
          "indexed": false,
          "internalType": "uint256",
          "name": "itemId",
          "type": "uint256"
        }
      ],
      "name": "Buy",
      "type": "event"
    },
    {
      "anonymous": false,
      "inputs": [
        {
          "indexed": false,
          "internalType": "string",
          "name": "name",
          "type": "string"
        },
        {
          "indexed": false,
          "internalType": "uint256",
          "name": "cost",
          "type": "uint256"
        },
        {
          "indexed": false,
          "internalType": "uint256",
          "name": "quantity",
          "type": "uint256"
        }
      ],
      "name": "List",
      "type": "event"
    },
    {
      "inputs": [
        {
          "internalType": "uint256",
          "name": "_id",
          "type": "uint256"
        }
      ],
      "name": "buy",
      "outputs": [],
      "stateMutability": "payable",
      "type": "function"
    },
    {
      "inputs": [
        {
          "internalType": "uint256",
          "name": "",
          "type": "uint256"
        }
      ],
      "name": "items",
      "outputs": [
        {
          "internalType": "uint256",
          "name": "id",
          "type": "uint256"
        },
        {
          "internalType": "string",
          "name": "name",
          "type": "string"
        },
        {
          "internalType": "string",
          "name": "category",
          "type": "string"
        },
        {
          "internalType": "string",
          "name": "image",
          "type": "string"
        },
        {
          "internalType": "string",
          "name": "carbonfootprint",
          "type": "string"
        },
        {
          "internalType": "uint256",
          "name": "cost",
          "type": "uint256"
        },
        {
          "internalType": "uint256",
          "name": "stock",
          "type": "uint256"
        }
      ],
      "stateMutability": "view",
      "type": "function"
    },
    {
      "inputs": [
        {
          "internalType": "uint256",
          "name": "_id",
          "type": "uint256"
        },
        {
          "internalType": "string",
          "name": "_name",
          "type": "string"
        },
        {
          "internalType": "string",
          "name": "_category",
          "type": "string"
        },
        {
          "internalType": "string",
          "name": "_image",
          "type": "string"
        },
        {
          "internalType": "string",
          "name": "_carbonfootprint",
          "type": "string"
        },
        {
          "internalType": "uint256",
          "name": "_cost",
          "type": "uint256"
        },
        {
          "internalType": "uint256",
          "name": "_stock",
          "type": "uint256"
        }
      ],
      "name": "list",
      "outputs": [],
      "stateMutability": "nonpayable",
      "type": "function"
    },
    {
      "inputs": [
        {
          "internalType": "address",
          "name": "",
          "type": "address"
        }
      ],
      "name": "orderCount",
      "outputs": [
        {
          "internalType": "uint256",
          "name": "",
          "type": "uint256"
        }
      ],
      "stateMutability": "view",
      "type": "function"
    },
    {
      "inputs": [
        {
          "internalType": "address",
          "name": "",
          "type": "address"
        },
        {
          "internalType": "uint256",
          "name": "",
          "type": "uint256"
        }
      ],
      "name": "orders",
      "outputs": [
        {
          "internalType": "uint256",
          "name": "time",
          "type": "uint256"
        },
        {
          "components": [
            {
              "internalType": "uint256",
              "name": "id",
              "type": "uint256"
            },
            {
              "internalType": "string",
              "name": "name",
              "type": "string"
            },
            {
              "internalType": "string",
              "name": "category",
              "type": "string"
            },
            {
              "internalType": "string",
              "name": "image",
              "type": "string"
            },
            {
              "internalType": "string",
              "name": "carbonfootprint",
              "type": "string"
            },
            {
              "internalType": "uint256",
              "name": "cost",
              "type": "uint256"
            },
            {
              "internalType": "uint256",
              "name": "stock",
              "type": "uint256"
            }
          ],
          "internalType": "struct Rekart.Item",
          "name": "item",
          "type": "tuple"
        }
      ],
      "stateMutability": "view",
      "type": "function"
    },
    {
      "inputs": [],
      "name": "owner",
      "outputs": [
        {
          "internalType": "address",
          "name": "",
          "type": "address"
        }
      ],
      "stateMutability": "view",
      "type": "function"
    },
    {
      "inputs": [],
      "name": "withdraw",
      "outputs": [],
      "stateMutability": "nonpayable",
      "type": "function"
    }
  ],
  "bytecode": "0x608060405234801561001057600080fd5b50336000806101000a81548173ffffffffffffffffffffffffffffffffffffffff021916908373ffffffffffffffffffffffffffffffffffffffff1602179055506118dc806100606000396000f3fe6080604052600436106100705760003560e01c8063793b8c6d1161004e578063793b8c6d146100f25780638da5cb5b14610130578063bfb231d21461015b578063d96a094a1461019e57610070565b806304987eba146100755780633ccfd60b1461009e578063713d856b146100b5575b600080fd5b34801561008157600080fd5b5061009c60048036038101906100979190610fc0565b6101ba565b005b3480156100aa57600080fd5b506100b361031b565b005b3480156100c157600080fd5b506100dc60048036038101906100d79190611130565b61040d565b6040516100e9919061116c565b60405180910390f35b3480156100fe57600080fd5b5061011960048036038101906101149190611187565b610425565b604051610127929190611306565b60405180910390f35b34801561013c57600080fd5b506101456106c6565b6040516101529190611345565b60405180910390f35b34801561016757600080fd5b50610182600480360381019061017d9190611360565b6106ea565b60405161019597969594939291906113d7565b60405180910390f35b6101b860048036038101906101b39190611360565b61094c565b005b60008054906101000a900473ffffffffffffffffffffffffffffffffffffffff1673ffffffffffffffffffffffffffffffffffffffff163373ffffffffffffffffffffffffffffffffffffffff161461021257600080fd5b60006040518060e0016040528089815260200188815260200187815260200186815260200185815260200184815260200183815250905080600160008a815260200190815260200160002060008201518160000155602082015181600101908161027c919061166e565b506040820151816002019081610292919061166e565b5060608201518160030190816102a8919061166e565b5060808201518160040190816102be919061166e565b5060a0820151816005015560c082015181600601559050507ffdbe2a012c10ec01592653978eaa09b5ca60b143a0e617505b2ebcbd911ec5b887848460405161030993929190611740565b60405180910390a15050505050505050565b60008054906101000a900473ffffffffffffffffffffffffffffffffffffffff1673ffffffffffffffffffffffffffffffffffffffff163373ffffffffffffffffffffffffffffffffffffffff161461037357600080fd5b60008060009054906101000a900473ffffffffffffffffffffffffffffffffffffffff1673ffffffffffffffffffffffffffffffffffffffff16476040516103ba906117af565b60006040518083038185875af1925050503d80600081146103f7576040519150601f19603f3d011682016040523d82523d6000602084013e6103fc565b606091505b505090508061040a57600080fd5b50565b60026020528060005260406000206000915090505481565b600360205281600052604060002060205280600052604060002060009150915050806000015490806001016040518060e00160405290816000820154815260200160018201805461047590611491565b80601f01602080910402602001604051908101604052809291908181526020018280546104a190611491565b80156104ee5780601f106104c3576101008083540402835291602001916104ee565b820191906000526020600020905b8154815290600101906020018083116104d157829003601f168201915b5050505050815260200160028201805461050790611491565b80601f016020809104026020016040519081016040528092919081815260200182805461053390611491565b80156105805780601f1061055557610100808354040283529160200191610580565b820191906000526020600020905b81548152906001019060200180831161056357829003601f168201915b5050505050815260200160038201805461059990611491565b80601f01602080910402602001604051908101604052809291908181526020018280546105c590611491565b80156106125780601f106105e757610100808354040283529160200191610612565b820191906000526020600020905b8154815290600101906020018083116105f557829003601f168201915b5050505050815260200160048201805461062b90611491565b80601f016020809104026020016040519081016040528092919081815260200182805461065790611491565b80156106a45780601f10610679576101008083540402835291602001916106a4565b820191906000526020600020905b81548152906001019060200180831161068757829003601f168201915b5050505050815260200160058201548152602001600682015481525050905082565b60008054906101000a900473ffffffffffffffffffffffffffffffffffffffff1681565b600160205280600052604060002060009150905080600001549080600101805461071390611491565b80601f016020809104026020016040519081016040528092919081815260200182805461073f90611491565b801561078c5780601f106107615761010080835404028352916020019161078c565b820191906000526020600020905b81548152906001019060200180831161076f57829003601f168201915b5050505050908060020180546107a190611491565b80601f01602080910402602001604051908101604052809291908181526020018280546107cd90611491565b801561081a5780601f106107ef5761010080835404028352916020019161081a565b820191906000526020600020905b8154815290600101906020018083116107fd57829003601f168201915b50505050509080600301805461082f90611491565b80601f016020809104026020016040519081016040528092919081815260200182805461085b90611491565b80156108a85780601f1061087d576101008083540402835291602001916108a8565b820191906000526020600020905b81548152906001019060200180831161088b57829003601f168201915b5050505050908060040180546108bd90611491565b80601f01602080910402602001604051908101604052809291908181526020018280546108e990611491565b80156109365780601f1061090b57610100808354040283529160200191610936565b820191906000526020600020905b81548152906001019060200180831161091957829003601f168201915b5050505050908060050154908060060154905087565b6000600160008381526020019081526020016000206040518060e00160405290816000820154815260200160018201805461098690611491565b80601f01602080910402602001604051908101604052809291908181526020018280546109b290611491565b80156109ff5780601f106109d4576101008083540402835291602001916109ff565b820191906000526020600020905b8154815290600101906020018083116109e257829003601f168201915b50505050508152602001600282018054610a1890611491565b80601f0160208091040260200160405190810160405280929190818152602001828054610a4490611491565b8015610a915780601f10610a6657610100808354040283529160200191610a91565b820191906000526020600020905b815481529060010190602001808311610a7457829003601f168201915b50505050508152602001600382018054610aaa90611491565b80601f0160208091040260200160405190810160405280929190818152602001828054610ad690611491565b8015610b235780601f10610af857610100808354040283529160200191610b23565b820191906000526020600020905b815481529060010190602001808311610b0657829003601f168201915b50505050508152602001600482018054610b3c90611491565b80601f0160208091040260200160405190810160405280929190818152602001828054610b6890611491565b8015610bb55780601f10610b8a57610100808354040283529160200191610bb5565b820191906000526020600020905b815481529060010190602001808311610b9857829003601f168201915b505050505081526020016005820154815260200160068201548152505090508060a00151341015610be557600080fd5b60008160c0015111610bf657600080fd5b60006040518060400160405280428152602001838152509050600260003373ffffffffffffffffffffffffffffffffffffffff1673ffffffffffffffffffffffffffffffffffffffff1681526020019081526020016000206000815480929190610c5f906117f3565b919050555080600360003373ffffffffffffffffffffffffffffffffffffffff1673ffffffffffffffffffffffffffffffffffffffff1681526020019081526020016000206000600260003373ffffffffffffffffffffffffffffffffffffffff1673ffffffffffffffffffffffffffffffffffffffff16815260200190815260200160002054815260200190815260200160002060008201518160000155602082015181600101600082015181600001556020820151816001019081610d26919061166e565b506040820151816002019081610d3c919061166e565b506060820151816003019081610d52919061166e565b506080820151816004019081610d68919061166e565b5060a0820151816005015560c08201518160060155505090505060018260c00151610d93919061183b565b60016000858152602001908152602001600020600601819055507f1cbc5ab135991bd2b6a4b034a04aa2aa086dac1371cb9b16b8b5e2ed6b036bed33600260003373ffffffffffffffffffffffffffffffffffffffff1673ffffffffffffffffffffffffffffffffffffffff168152602001908152602001600020548460000151604051610e239392919061186f565b60405180910390a1505050565b6000604051905090565b600080fd5b600080fd5b6000819050919050565b610e5781610e44565b8114610e6257600080fd5b50565b600081359050610e7481610e4e565b92915050565b600080fd5b600080fd5b6000601f19601f8301169050919050565b7f4e487b7100000000000000000000000000000000000000000000000000000000600052604160045260246000fd5b610ecd82610e84565b810181811067ffffffffffffffff82111715610eec57610eeb610e95565b5b80604052505050565b6000610eff610e30565b9050610f0b8282610ec4565b919050565b600067ffffffffffffffff821115610f2b57610f2a610e95565b5b610f3482610e84565b9050602081019050919050565b82818337600083830152505050565b6000610f63610f5e84610f10565b610ef5565b905082815260208101848484011115610f7f57610f7e610e7f565b5b610f8a848285610f41565b509392505050565b600082601f830112610fa757610fa6610e7a565b5b8135610fb7848260208601610f50565b91505092915050565b600080600080600080600060e0888a031215610fdf57610fde610e3a565b5b6000610fed8a828b01610e65565b975050602088013567ffffffffffffffff81111561100e5761100d610e3f565b5b61101a8a828b01610f92565b965050604088013567ffffffffffffffff81111561103b5761103a610e3f565b5b6110478a828b01610f92565b955050606088013567ffffffffffffffff81111561106857611067610e3f565b5b6110748a828b01610f92565b945050608088013567ffffffffffffffff81111561109557611094610e3f565b5b6110a18a828b01610f92565b93505060a06110b28a828b01610e65565b92505060c06110c38a828b01610e65565b91505092959891949750929550565b600073ffffffffffffffffffffffffffffffffffffffff82169050919050565b60006110fd826110d2565b9050919050565b61110d816110f2565b811461111857600080fd5b50565b60008135905061112a81611104565b92915050565b60006020828403121561114657611145610e3a565b5b60006111548482850161111b565b91505092915050565b61116681610e44565b82525050565b6000602082019050611181600083018461115d565b92915050565b6000806040838503121561119e5761119d610e3a565b5b60006111ac8582860161111b565b92505060206111bd85828601610e65565b9150509250929050565b6111d081610e44565b82525050565b600081519050919050565b600082825260208201905092915050565b60005b838110156112105780820151818401526020810190506111f5565b60008484015250505050565b6000611227826111d6565b61123181856111e1565b93506112418185602086016111f2565b61124a81610e84565b840191505092915050565b600060e08301600083015161126d60008601826111c7565b5060208301518482036020860152611285828261121c565b9150506040830151848203604086015261129f828261121c565b915050606083015184820360608601526112b9828261121c565b915050608083015184820360808601526112d3828261121c565b91505060a08301516112e860a08601826111c7565b5060c08301516112fb60c08601826111c7565b508091505092915050565b600060408201905061131b600083018561115d565b818103602083015261132d8184611255565b90509392505050565b61133f816110f2565b82525050565b600060208201905061135a6000830184611336565b92915050565b60006020828403121561137657611375610e3a565b5b600061138484828501610e65565b91505092915050565b600082825260208201905092915050565b60006113a9826111d6565b6113b3818561138d565b93506113c38185602086016111f2565b6113cc81610e84565b840191505092915050565b600060e0820190506113ec600083018a61115d565b81810360208301526113fe818961139e565b90508181036040830152611412818861139e565b90508181036060830152611426818761139e565b9050818103608083015261143a818661139e565b905061144960a083018561115d565b61145660c083018461115d565b98975050505050505050565b7f4e487b7100000000000000000000000000000000000000000000000000000000600052602260045260246000fd5b600060028204905060018216806114a957607f821691505b6020821081036114bc576114bb611462565b5b50919050565b60008190508160005260206000209050919050565b60006020601f8301049050919050565b600082821b905092915050565b6000600883026115247fffffffffffffffffffffffffffffffffffffffffffffffffffffffffffffffff826114e7565b61152e86836114e7565b95508019841693508086168417925050509392505050565b6000819050919050565b600061156b61156661156184610e44565b611546565b610e44565b9050919050565b6000819050919050565b61158583611550565b61159961159182611572565b8484546114f4565b825550505050565b600090565b6115ae6115a1565b6115b981848461157c565b505050565b5b818110156115dd576115d26000826115a6565b6001810190506115bf565b5050565b601f821115611622576115f3816114c2565b6115fc846114d7565b8101602085101561160b578190505b61161f611617856114d7565b8301826115be565b50505b505050565b600082821c905092915050565b600061164560001984600802611627565b1980831691505092915050565b600061165e8383611634565b9150826002028217905092915050565b611677826111d6565b67ffffffffffffffff8111156116905761168f610e95565b5b61169a8254611491565b6116a58282856115e1565b600060209050601f8311600181146116d857600084156116c6578287015190505b6116d08582611652565b865550611738565b601f1984166116e6866114c2565b60005b8281101561170e578489015182556001820191506020850194506020810190506116e9565b8683101561172b5784890151611727601f891682611634565b8355505b6001600288020188555050505b505050505050565b6000606082019050818103600083015261175a818661139e565b9050611769602083018561115d565b611776604083018461115d565b949350505050565b600081905092915050565b50565b600061179960008361177e565b91506117a482611789565b600082019050919050565b60006117ba8261178c565b9150819050919050565b7f4e487b7100000000000000000000000000000000000000000000000000000000600052601160045260246000fd5b60006117fe82610e44565b91507fffffffffffffffffffffffffffffffffffffffffffffffffffffffffffffffff82036118305761182f6117c4565b5b600182019050919050565b600061184682610e44565b915061185183610e44565b9250828203905081811115611869576118686117c4565b5b92915050565b60006060820190506118846000830186611336565b611891602083018561115d565b61189e604083018461115d565b94935050505056fea26469706673582212200f41fc7cb18b2bf10387cf44a0fe6ae56800f934ee71012a3e74cafcd308741f64736f6c63430008120033",
  "linkReferences": {},
  "deployedLinkReferences": {}
}